{
  "_format": "hh-sol-artifact-1",
  "contractName": "BlockLotto",
  "sourceName": "contracts/BlockLotto.sol",
  "abi": [
    {
      "inputs": [
        {
          "internalType": "address",
          "name": "_usdc",
          "type": "address"
        },
        {
          "internalType": "address",
          "name": "_feeTreasury",
          "type": "address"
        }
      ],
      "stateMutability": "nonpayable",
      "type": "constructor"
    },
    {
      "inputs": [
        {
          "internalType": "address",
          "name": "owner",
          "type": "address"
        }
      ],
      "name": "OwnableInvalidOwner",
      "type": "error"
    },
    {
      "inputs": [
        {
          "internalType": "address",
          "name": "account",
          "type": "address"
        }
      ],
      "name": "OwnableUnauthorizedAccount",
      "type": "error"
    },
    {
      "inputs": [],
      "name": "ReentrancyGuardReentrantCall",
      "type": "error"
    },
    {
      "anonymous": false,
      "inputs": [
        {
          "indexed": true,
          "internalType": "uint256",
          "name": "roundId",
          "type": "uint256"
        },
        {
          "indexed": true,
          "internalType": "address",
          "name": "user",
          "type": "address"
        },
        {
          "indexed": false,
          "internalType": "uint256",
          "name": "amount",
          "type": "uint256"
        }
      ],
      "name": "Claimed",
      "type": "event"
    },
    {
      "anonymous": false,
      "inputs": [
        {
          "indexed": true,
          "internalType": "uint256",
          "name": "roundId",
          "type": "uint256"
        },
        {
          "indexed": true,
          "internalType": "address",
          "name": "user",
          "type": "address"
        },
        {
          "indexed": false,
          "internalType": "uint16",
          "name": "pick",
          "type": "uint16"
        },
        {
          "indexed": false,
          "internalType": "uint256",
          "name": "amount",
          "type": "uint256"
        }
      ],
      "name": "Entered",
      "type": "event"
    },
    {
      "anonymous": false,
      "inputs": [
        {
          "indexed": false,
          "internalType": "uint256",
          "name": "amount",
          "type": "uint256"
        },
        {
          "indexed": false,
          "internalType": "address",
          "name": "to",
          "type": "address"
        }
      ],
      "name": "FeesWithdrawn",
      "type": "event"
    },
    {
      "anonymous": false,
      "inputs": [
        {
          "indexed": true,
          "internalType": "address",
          "name": "previousOwner",
          "type": "address"
        },
        {
          "indexed": true,
          "internalType": "address",
          "name": "newOwner",
          "type": "address"
        }
      ],
      "name": "OwnershipTransferred",
      "type": "event"
    },
    {
      "anonymous": false,
      "inputs": [
        {
          "indexed": true,
          "internalType": "uint256",
          "name": "roundId",
          "type": "uint256"
        },
        {
          "indexed": false,
          "internalType": "uint32",
          "name": "winning",
          "type": "uint32"
        }
      ],
      "name": "RandomFulfilled",
      "type": "event"
    },
    {
      "anonymous": false,
      "inputs": [
        {
          "indexed": true,
          "internalType": "uint256",
          "name": "roundId",
          "type": "uint256"
        },
        {
          "indexed": false,
          "internalType": "uint256",
          "name": "requestId",
          "type": "uint256"
        }
      ],
      "name": "RandomRequested",
      "type": "event"
    },
    {
      "anonymous": false,
      "inputs": [
        {
          "indexed": true,
          "internalType": "uint256",
          "name": "id",
          "type": "uint256"
        },
        {
          "indexed": false,
          "internalType": "uint64",
          "name": "open",
          "type": "uint64"
        },
        {
          "indexed": false,
          "internalType": "uint64",
          "name": "close",
          "type": "uint64"
        }
      ],
      "name": "RoundCreated",
      "type": "event"
    },
    {
      "anonymous": false,
      "inputs": [
        {
          "indexed": true,
          "internalType": "uint256",
          "name": "roundId",
          "type": "uint256"
        },
        {
          "indexed": false,
          "internalType": "uint256",
          "name": "pool1",
          "type": "uint256"
        },
        {
          "indexed": false,
          "internalType": "uint256",
          "name": "pool2",
          "type": "uint256"
        },
        {
          "indexed": false,
          "internalType": "uint256",
          "name": "pool3",
          "type": "uint256"
        },
        {
          "indexed": false,
          "internalType": "uint256",
          "name": "fee",
          "type": "uint256"
        }
      ],
      "name": "Settled",
      "type": "event"
    },
    {
      "inputs": [],
      "name": "ENTRY_USDC_6D",
      "outputs": [
        {
          "internalType": "uint256",
          "name": "",
          "type": "uint256"
        }
      ],
      "stateMutability": "view",
      "type": "function"
    },
    {
      "inputs": [],
      "name": "PCT_1",
      "outputs": [
        {
          "internalType": "uint16",
          "name": "",
          "type": "uint16"
        }
      ],
      "stateMutability": "view",
      "type": "function"
    },
    {
      "inputs": [],
      "name": "PCT_2",
      "outputs": [
        {
          "internalType": "uint16",
          "name": "",
          "type": "uint16"
        }
      ],
      "stateMutability": "view",
      "type": "function"
    },
    {
      "inputs": [],
      "name": "PCT_3",
      "outputs": [
        {
          "internalType": "uint16",
          "name": "",
          "type": "uint16"
        }
      ],
      "stateMutability": "view",
      "type": "function"
    },
    {
      "inputs": [],
      "name": "PCT_DEN",
      "outputs": [
        {
          "internalType": "uint16",
          "name": "",
          "type": "uint16"
        }
      ],
      "stateMutability": "view",
      "type": "function"
    },
    {
      "inputs": [],
      "name": "PCT_F",
      "outputs": [
        {
          "internalType": "uint16",
          "name": "",
          "type": "uint16"
        }
      ],
      "stateMutability": "view",
      "type": "function"
    },
    {
      "inputs": [],
      "name": "RANGE_MAX",
      "outputs": [
        {
          "internalType": "uint16",
          "name": "",
          "type": "uint16"
        }
      ],
      "stateMutability": "view",
      "type": "function"
    },
    {
      "inputs": [],
      "name": "SCALE",
      "outputs": [
        {
          "internalType": "uint256",
          "name": "",
          "type": "uint256"
        }
      ],
      "stateMutability": "view",
      "type": "function"
    },
    {
      "inputs": [
        {
          "internalType": "uint256",
          "name": "roundId",
          "type": "uint256"
        }
      ],
      "name": "claim",
      "outputs": [],
      "stateMutability": "nonpayable",
      "type": "function"
    },
    {
      "inputs": [
        {
          "internalType": "uint256",
          "name": "",
          "type": "uint256"
        },
        {
          "internalType": "address",
          "name": "",
          "type": "address"
        }
      ],
      "name": "claimed",
      "outputs": [
        {
          "internalType": "uint256",
          "name": "",
          "type": "uint256"
        }
      ],
      "stateMutability": "view",
      "type": "function"
    },
    {
      "inputs": [
        {
          "internalType": "uint256",
          "name": "roundId",
          "type": "uint256"
        }
      ],
      "name": "closeAndRequestRandom",
      "outputs": [],
      "stateMutability": "nonpayable",
      "type": "function"
    },
    {
      "inputs": [
        {
          "internalType": "uint64",
          "name": "openTime",
          "type": "uint64"
        },
        {
          "internalType": "uint64",
          "name": "closeTime",
          "type": "uint64"
        }
      ],
      "name": "createRound",
      "outputs": [
        {
          "internalType": "uint256",
          "name": "id",
          "type": "uint256"
        }
      ],
      "stateMutability": "nonpayable",
      "type": "function"
    },
    {
      "inputs": [],
      "name": "currentRoundId",
      "outputs": [
        {
          "internalType": "uint256",
          "name": "",
          "type": "uint256"
        }
      ],
      "stateMutability": "view",
      "type": "function"
    },
    {
      "inputs": [
        {
          "internalType": "uint256",
          "name": "roundId",
          "type": "uint256"
        },
        {
          "internalType": "uint16",
          "name": "pick",
          "type": "uint16"
        }
      ],
      "name": "enter",
      "outputs": [],
      "stateMutability": "nonpayable",
      "type": "function"
    },
    {
      "inputs": [],
      "name": "feeTreasury",
      "outputs": [
        {
          "internalType": "address",
          "name": "",
          "type": "address"
        }
      ],
      "stateMutability": "view",
      "type": "function"
    },
    {
      "inputs": [
        {
          "internalType": "uint256",
          "name": "roundId",
          "type": "uint256"
        },
        {
          "internalType": "address",
          "name": "user",
          "type": "address"
        }
      ],
      "name": "getMyPicks",
      "outputs": [
        {
          "internalType": "uint16[]",
          "name": "",
          "type": "uint16[]"
        }
      ],
      "stateMutability": "view",
      "type": "function"
    },
    {
      "inputs": [],
      "name": "owner",
      "outputs": [
        {
          "internalType": "address",
          "name": "",
          "type": "address"
        }
      ],
      "stateMutability": "view",
      "type": "function"
    },
    {
      "inputs": [],
      "name": "platformFeesAccrued",
      "outputs": [
        {
          "internalType": "uint256",
          "name": "",
          "type": "uint256"
        }
      ],
      "stateMutability": "view",
      "type": "function"
    },
    {
      "inputs": [
        {
          "internalType": "uint256",
          "name": "requestId",
          "type": "uint256"
        },
        {
          "internalType": "uint256[]",
          "name": "randomWords",
          "type": "uint256[]"
        }
      ],
      "name": "rawFulfillRandomWords",
      "outputs": [],
      "stateMutability": "nonpayable",
      "type": "function"
    },
    {
      "inputs": [],
      "name": "renounceOwnership",
      "outputs": [],
      "stateMutability": "nonpayable",
      "type": "function"
    },
    {
      "inputs": [
        {
          "internalType": "uint256",
          "name": "",
          "type": "uint256"
        }
      ],
      "name": "requestRound",
      "outputs": [
        {
          "internalType": "uint256",
          "name": "",
          "type": "uint256"
        }
      ],
      "stateMutability": "view",
      "type": "function"
    },
    {
      "inputs": [
        {
          "internalType": "uint256",
          "name": "",
          "type": "uint256"
        }
      ],
      "name": "rounds",
      "outputs": [
        {
          "internalType": "uint64",
          "name": "openTime",
          "type": "uint64"
        },
        {
          "internalType": "uint64",
          "name": "closeTime",
          "type": "uint64"
        },
        {
          "internalType": "uint32",
          "name": "winning",
          "type": "uint32"
        },
        {
          "internalType": "uint256",
          "name": "totalDeposits",
          "type": "uint256"
        },
        {
          "internalType": "uint256",
          "name": "carry1",
          "type": "uint256"
        },
        {
          "internalType": "bool",
          "name": "drawn",
          "type": "bool"
        },
        {
          "internalType": "bool",
          "name": "settled",
          "type": "bool"
        }
      ],
      "stateMutability": "view",
      "type": "function"
    },
    {
      "inputs": [
        {
          "internalType": "address",
          "name": "to",
          "type": "address"
        }
      ],
      "name": "setFeeTreasury",
      "outputs": [],
      "stateMutability": "nonpayable",
      "type": "function"
    },
    {
      "inputs": [
        {
          "internalType": "address",
          "name": "coordinator",
          "type": "address"
        },
        {
          "internalType": "bytes32",
          "name": "keyHash",
          "type": "bytes32"
        },
        {
          "internalType": "uint256",
          "name": "subId",
          "type": "uint256"
        }
      ],
      "name": "setVRF",
      "outputs": [],
      "stateMutability": "nonpayable",
      "type": "function"
    },
    {
      "inputs": [
        {
          "internalType": "uint16",
          "name": "conf",
          "type": "uint16"
        },
        {
          "internalType": "uint32",
          "name": "gasLimit",
          "type": "uint32"
        }
      ],
      "name": "setVRFParams",
      "outputs": [],
      "stateMutability": "nonpayable",
      "type": "function"
    },
    {
      "inputs": [
        {
          "internalType": "uint256",
          "name": "roundId",
          "type": "uint256"
        }
      ],
      "name": "settle",
      "outputs": [],
      "stateMutability": "nonpayable",
      "type": "function"
    },
    {
      "inputs": [
        {
          "internalType": "uint256",
          "name": "",
          "type": "uint256"
        },
        {
          "internalType": "uint16",
          "name": "",
          "type": "uint16"
        }
      ],
      "name": "stakeByPick",
      "outputs": [
        {
          "internalType": "uint256",
          "name": "",
          "type": "uint256"
        }
      ],
      "stateMutability": "view",
      "type": "function"
    },
    {
      "inputs": [
        {
          "internalType": "address",
          "name": "newOwner",
          "type": "address"
        }
      ],
      "name": "transferOwnership",
      "outputs": [],
      "stateMutability": "nonpayable",
      "type": "function"
    },
    {
      "inputs": [
        {
          "internalType": "uint256",
          "name": "",
          "type": "uint256"
        }
      ],
      "name": "unit",
      "outputs": [
        {
          "internalType": "uint256",
          "name": "exact",
          "type": "uint256"
        },
        {
          "internalType": "uint256",
          "name": "last2",
          "type": "uint256"
        },
        {
          "internalType": "uint256",
          "name": "last1",
          "type": "uint256"
        }
      ],
      "stateMutability": "view",
      "type": "function"
    },
    {
      "inputs": [],
      "name": "usdc",
      "outputs": [
        {
          "internalType": "contract IERC20",
          "name": "",
          "type": "address"
        }
      ],
      "stateMutability": "view",
      "type": "function"
    },
    {
      "inputs": [
        {
          "internalType": "uint256",
          "name": "",
          "type": "uint256"
        },
        {
          "internalType": "address",
          "name": "",
          "type": "address"
        },
        {
          "internalType": "uint16",
          "name": "",
          "type": "uint16"
        }
      ],
      "name": "userStakeByPick",
      "outputs": [
        {
          "internalType": "uint256",
          "name": "",
          "type": "uint256"
        }
      ],
      "stateMutability": "view",
      "type": "function"
    },
    {
      "inputs": [],
      "name": "vrf",
      "outputs": [
        {
          "internalType": "contract IVRFCoordinatorV2Plus",
          "name": "",
          "type": "address"
        }
      ],
      "stateMutability": "view",
      "type": "function"
    },
    {
      "inputs": [],
      "name": "vrfCallbackGasLimit",
      "outputs": [
        {
          "internalType": "uint32",
          "name": "",
          "type": "uint32"
        }
      ],
      "stateMutability": "view",
      "type": "function"
    },
    {
      "inputs": [],
      "name": "vrfConfirmations",
      "outputs": [
        {
          "internalType": "uint16",
          "name": "",
          "type": "uint16"
        }
      ],
      "stateMutability": "view",
      "type": "function"
    },
    {
      "inputs": [],
      "name": "vrfKeyHash",
      "outputs": [
        {
          "internalType": "bytes32",
          "name": "",
          "type": "bytes32"
        }
      ],
      "stateMutability": "view",
      "type": "function"
    },
    {
      "inputs": [],
      "name": "vrfSubId",
      "outputs": [
        {
          "internalType": "uint256",
          "name": "",
          "type": "uint256"
        }
      ],
      "stateMutability": "view",
      "type": "function"
    },
    {
      "inputs": [
        {
          "internalType": "uint256",
          "name": "amount",
          "type": "uint256"
        }
      ],
      "name": "withdrawFees",
      "outputs": [],
      "stateMutability": "nonpayable",
      "type": "function"
    }
  ],
  "bytecode": "0x60a0346200017857601f6200216a38819003918201601f19168301916001600160401b038311848410176200017d57808492604094855283398101031262000178576200005a6020620000528362000193565b920162000193565b90600160005533156200015f5760018054336001600160a01b03198216811790925560405193916001600160a01b039182167f8be0079c531659141344cd1fd0a4f28419497f9722a3daafe3b4186f6b6457e0600080a380600554931690811515908162000152575b501562000125576080526001600160d01b031990911660309190911b600160301b600160d01b0316176403d09000031760055550604051611fc19081620001a98239608051818181610e7a015281816110450152818161135501526116ab0152f35b62461bcd60e51b84526020600485015260086024850152673130b21030b2323960c11b6044850152606484fd5b90508216151538620000c3565b604051631e4fbdf760e01b815260006004820152602490fd5b600080fd5b634e487b7160e01b600052604160045260246000fd5b51906001600160a01b0382168203620001785756fe608080604052600436101561001357600080fd5b60e0600035811c918263041d443e14611dc3575081630c94904314611d9a578163120aa87714611d525781631d0b8fe4146119bd5781631fe543e31461183e57816322163b86146118205781632699e9e11461180257816332615640146117e4578163379607f5146113ab5781633b7ed734146113845781633e413bee1461133f5781634235ba881461132257816342714bf3146113055781634707a74d146112e857816349e7648a146112cb5781634caea5b214610f535781635e318e0714610e0657816360dc234014610dd95781636285973b14610dbc5781637131fe0214610d6d578163715018a614610d105781638c65c81f14610c8f575080638da5cb5b14610c665780638df82800146108ab5780639cbe5efd1461088d578063a2ae5b231461086b578063bc30243f1461064f578063bfa37e37146105c5578063c5b66bcd14610569578063cdfb12a5146103a2578063d1e40ed41461033e578063d384fef214610312578063d7f8ffa6146102f5578063e00508ba146102b2578063eced55261461028f578063f2fde38b146102015763fec82b8f146101b857600080fd5b346101fc5760403660031901126101fc576101d1611e0a565b600435600052600660205261ffff604060002091166000526020526020604060002054604051908152f35b600080fd5b346101fc5760203660031901126101fc5761021a611df4565b610222611e1b565b6001600160a01b0390811690811561027657600154826bffffffffffffffffffffffff60a01b821617600155167f8be0079c531659141344cd1fd0a4f28419497f9722a3daafe3b4186f6b6457e0600080a3005b604051631e4fbdf760e01b815260006004820152602490fd5b346101fc5760003660031901126101fc576020604051670de0b6b3a76400008152f35b346101fc5760203660031901126101fc57600435600052600b60205260606040600020805490600260018201549101549060405192835260208301526040820152f35b346101fc5760003660031901126101fc5760206040516127108152f35b346101fc5760203660031901126101fc57600435600052600f6020526020604060002054604051908152f35b346101fc5760603660031901126101fc57610357611dde565b6044359061ffff82168092036101fc57600435600052600760205260406000209060018060a01b03166000526020526040600020906000526020526020604060002054604051908152f35b346101fc576020806003193601126101fc576004359081600052600c81526103de67ffffffffffffffff60406000205460401c16421015611f0c565b81600052600c815260036040600020019060ff825416610539576002546001600160a01b0316918215610508578160035460a46004549160006005549763ffffffff604051998a96879563d33d44c160e01b87526004870152602486015261ffff8116604486015260101c166064840152600160848401525af19081156104fc576000916104ad575b7fb77cd7d07de873be2115fccb65bdf434988eb60bc4fadaa40b1a567d29bc0f3b935081600052600f835284604060002055600160ff19825416179055604051908152a2005b90508183813d83116104f5575b6104c48183611e70565b810103126101fc577fb77cd7d07de873be2115fccb65bdf434988eb60bc4fadaa40b1a567d29bc0f3b925190610467565b503d6104ba565b6040513d6000823e3d90fd5b60405162461bcd60e51b81526004810183905260096024820152681d9c99881d5b9cd95d60ba1b6044820152606490fd5b6064906040519062461bcd60e51b8252600482015260096024820152681c995c5d595cdd195960ba1b6044820152fd5b346101fc5760403660031901126101fc5760043561ffff81168091036101fc576024359063ffffffff821682036101fc576105a2611e1b565b65ffffffff00006005549260101b169165ffffffffffff19161717600555600080f35b346101fc5760203660031901126101fc576105de611df4565b6105e6611e1b565b6001600160a01b0381161561062657600580546601000000000000600160d01b03191660309290921b6601000000000000600160d01b0316919091179055005b60405162461bcd60e51b81526020600482015260016024820152600360fc1b6044820152606490fd5b346101fc5760403660031901126101fc5760043567ffffffffffffffff8082168092036101fc576024358181168091036101fc5761068b611e1b565b82811180610862575b1561083157600d549160001983146107e757600183019283600d55600184116000146107fd578381116107e75760209484937f1b5721fdc0d91f91701eb33af1162938d948bfac559215c075140aefb67a831493604093600052600c885285600360028660002001545b86519061070a82611e54565b8682528b82018681526107a863ffffffff8a8501600081526060860193600085526080870195865260a087019960008b5260c088019960008b526000526020600c90528d6000209751166fffffffffffffffff0000000000000000885492518f1b16916fffffffffffffffffffffffffffffffff1916171786555116849081549063ffffffff60801b9060801b169063ffffffff60801b1916179055565b51600183015551600282015501915115159060ff61ff0084549251151560081b1692169061ffff191617179055825191825286820152a2604051908152f35b634e487b7160e01b600052601160045260246000fd5b50604060209484937f1b5721fdc0d91f91701eb33af1162938d948bfac559215c075140aefb67a83149385600360006106fe565b60405162461bcd60e51b81526020600482015260096024820152686261642074696d657360b81b6044820152606490fd5b50428111610694565b346101fc5760003660031901126101fc57602061ffff60055416604051908152f35b346101fc5760003660031901126101fc576020600d54604051908152f35b346101fc5760203660031901126101fc57600435600052600c6020526108e567ffffffffffffffff60406000205460401c16421015611f0c565b600435600052600c60205260406000206103e763ffffffff825460801c16111580610c5e575b15610c2d5760ff600382015460081c16610bfe576001810154906103e89081830292801592818504148317156107e75761271061094c818604600e54611edc565b600e55611b5880830290838204148517156107e757610972908260028601549104611edc565b946105dc9485840295848704148117156107e7576101f48085029485041417156107e75761ffff845460801c169160043560005260066020526040600020836000526020526040600020549160009460009360005b61ffff81166103e78111610a34578781146109f25761ffff606489061661ffff606483061614610a01575b506109fc90611f78565b6109c7565b6109fc9198610a2d91600435600052600660205260406000209060005260205260406000205490611edc565b97906109f2565b5050888a9896959660005b6103e761ffff821611610acb578761ffff821614610a865761ffff606489061661ffff6064818416061614610a865761ffff600a89061661ffff600a818416061614610a94575b610a8f90611f78565b610a3f565b97610ac3610a8f916004356000526006602052604060002061ffff8c1660005260205260406000205490611edc565b989050610a86565b5089979495965088600435600052600b602052604060002093801515600014610bee57670de0b6b3a7640000908a8281020482148b1517156107e757610b12918b02611f58565b8455600060028301555b8015610be657670de0b6b3a7640000888404818102929181840414901517156107e757610b4891611f58565b6001840155868515610bd85750670de0b6b3a7640000878504818102949181860414901517156107e7576002610b8089978896611f58565b915b0155600361010061ff00198284015416179101556040519687520460208601520460408401520460608201527fa973b04048409154dba42dd56f3d2787fcfae851d65aa083ef6231bf57e53669608060043592a2005b945084926002600091610b82565b506000610b48565b5060008455886002830155610b1c565b60405162461bcd60e51b81526020600482015260076024820152661cd95d1d1b195960ca1b6044820152606490fd5b60405162461bcd60e51b81526020600482015260096024820152681b9bc81c995cdd5b1d60ba1b6044820152606490fd5b50600161090b565b346101fc5760003660031901126101fc576001546040516001600160a01b039091168152602090f35b346101fc5760203660031901126101fc57600435600052600c602052604060002060ff815467ffffffffffffffff92600181015463ffffffff60036002840154930154936040519680821688528160401c16602088015260801c16604086015260608501526080840152818116151560a084015260081c16151560c0820152f35b346101fc5760003660031901126101fc57610d29611e1b565b600180546001600160a01b031981169091556000906001600160a01b03167f8be0079c531659141344cd1fd0a4f28419497f9722a3daafe3b4186f6b6457e08280a3005b346101fc5760603660031901126101fc57610d86611df4565b610d8e611e1b565b600280546001600160a01b0319166001600160a01b0392909216919091179055602435600355604435600455005b346101fc5760003660031901126101fc5760206040516103e78152f35b346101fc5760003660031901126101fc5760055460405160309190911c6001600160a01b03168152602090f35b346101fc576020806003193601126101fc5760043590610e24611e1b565b8115610f49575b600e54808311610f1a5782610e3f91611e47565b600e5560055460405163a9059cbb60e01b81526001600160a01b0360309290921c8216600482015260248101849052929091808460448160007f000000000000000000000000000000000000000000000000000000000000000088165af19283156104fc57610eda6040947f812bcf6853ebc81dc0a1d2323893eedad6cd086a4398311a699e0a7acdf187b396600091610eed575b50611eaa565b60055460301c16908351928352820152a1005b610f0d9150843d8611610f13575b610f058183611e70565b810190611e92565b87610ed4565b503d610efb565b60405162461bcd60e51b81526004810183905260076024820152666578636565647360c81b6044820152606490fd5b600e549150610e2b565b346101fc5760403660031901126101fc57600435610f6f611e0a565b90610f78611ee9565b80600052602091600c8352604060002060405190610f9582611e54565b80549160c060ff600367ffffffffffffffff9463ffffffff868816968787528860401c1697888c88015260801c16604086015260018101546060860152600281015460808601520154818116151560a085015260081c16151591015242101590816112c1575b501561128f5761ffff809116926103e78411611260576040516323b872dd60e01b815233600482015230602480830191909152624c4b4060448301819052939091838160648160007f00000000000000000000000000000000000000000000000000000000000000006001600160a01b03165af180156104fc57611086916000916112435750611eaa565b84600052600c8352600160406000200180549085820180921161122e575584600052600683526040600020866000528352604060002080549085820180921161122e575584600052600983526040600020336000528352604060002086600052835260ff6040600020541615611174575b5083600052600782526040600020336000528252604060002085600052825260406000208054918483018093116111605750556040519384528301527f8e2df341359bbeadf410c5b210e27ed8efa7595eeae5e11fd60ea0a09505763160403393a36001600055005b634e487b7160e01b60009081526011600452fd5b8460005260098352604060002033600052835260406000208660005283526040600020600160ff198254161790558460005260088352604060002033600052835260406000209081549168010000000000000000831015611219576001830180825583101561120457600052836000208260041c019160f083549160041b169188831b921b1916179055856110f7565b83634e487b7160e01b60005260326004526000fd5b83634e487b7160e01b60005260416004526000fd5b83634e487b7160e01b60005260116004526000fd5b61125a9150853d8711610f1357610f058183611e70565b88610ed4565b6064906040519062461bcd60e51b825260048201526008602482015267626164207069636b60c01b6044820152fd5b60405162461bcd60e51b815260048101849052600a6024820152696e6f742061637469766560b01b6044820152606490fd5b9050421084610ffb565b346101fc5760003660031901126101fc5760206040516103e88152f35b346101fc5760003660031901126101fc576020604051611b588152f35b346101fc5760003660031901126101fc5760206040516105dc8152f35b346101fc5760003660031901126101fc5760206040516101f48152f35b346101fc5760003660031901126101fc576040517f00000000000000000000000000000000000000000000000000000000000000006001600160a01b03168152602090f35b346101fc5760003660031901126101fc57602063ffffffff60055460101c16604051908152f35b346101fc5760203660031901126101fc576113c4611ee9565b600435600052600c60205260406000206040516113e081611e54565b81549060ff600367ffffffffffffffff948585168452858560401c16602085015263ffffffff604085019560801c16855260018101546060850152600281015460808501520154818116151560a084015260081c16159060c082159101526117b157600435600052600b6020526040600020906040519260608401908482109082111761179b5761ffff92600291604052805485526001810154602086015201546040840152511690600090600435600052600760205260406000203360005260205260406000208360005260205260406000205480151580611791575b611771575b5060005b61ffff81166103e78111611573578481146114f25761ffff606486061661ffff606483061614611501575b506114fc90611f78565b6114c7565b600435600052600760205260406000203360005260205260406000209060005260205260406000205480151580611566575b156114f2576114fc9193670de0b6b3a764000061155861155f93602087015190611f45565b0490611edc565b92906114f2565b5060208301511515611533565b505060005b61ffff81166103e78111611632578481146115b85761ffff606486061661ffff6064830616146115b85761ffff600a86061661ffff600a830616146115c7575b506115c290611f78565b611578565b600435600052600760205260406000203360005260205260406000209060005260205260406000205480151580611625575b156115b8576115c29193670de0b6b3a764000061155861161e93604087015190611f45565b92906115b8565b50604083015115156115f9565b83600435600052600a60205260406000203360005260205260406000205480821115611742576116629082611e47565b600480356000908152600a60209081526040808320338085529083529281902095909555935163a9059cbb60e01b815291820152602481018290529091818060448101038160007f00000000000000000000000000000000000000000000000000000000000000006001600160a01b03165af180156104fc576116ec916000916117235750611eaa565b60405190815233907f4ec90e965519d92681267467f775ada5bd214aa92c0dc93d90a5e880ce9ed026602060043592a36001600055005b61173c915060203d602011610f1357610f058183611e70565b83610ed4565b60405162461bcd60e51b81526020600482015260076024820152666e6f7468696e6760c81b6044820152606490fd5b81925061178990670de0b6b3a7640000925190611f45565b0490836114c3565b50815115156114be565b634e487b7160e01b600052604160045260246000fd5b60405162461bcd60e51b815260206004820152600b60248201526a1b9bdd081cd95d1d1b195960aa1b6044820152606490fd5b346101fc5760003660031901126101fc576020600454604051908152f35b346101fc5760003660031901126101fc576020604051624c4b408152f35b346101fc5760003660031901126101fc576020600e54604051908152f35b346101fc5760403660031901126101fc57602480359067ffffffffffffffff8083116101fc57366023840112156101fc5782600401359081116101fc5736828260051b850101116101fc576002546001600160a01b0316330361198e57600435600052600f6020526040600020549283600052600c60205260406000209160ff6003840154168061197c575b1561194c571561193757815463ffffffff60801b19166103e893909101359290920660801b63ffffffff60801b169190911781557f406ea1524e050268943eb5b5e709a0b56a6c3f55344df97428d1c1d2bb7ab0ba9060209063ffffffff905460801c16604051908152a2005b82634e487b7160e01b60005260326004526000fd5b60405162461bcd60e51b81526020600482015260098186015268199d5b199a5b1b195960ba1b6044820152606490fd5b5063ffffffff835460801c16156118ca565b60405162461bcd60e51b8152602060048201526008818401526737b7363c903b393360c11b6044820152606490fd5b346101fc5760403660031901126101fc576119d6611dde565b906004356000526020916008835260406000209060018060a01b031660005282528160406000209160405190819283918186549485815201908196600052826000209460005b81600f820110611c7d5784611aba975493838310611c67575b838310611c4e575b838310611c36575b838310611c1d575b838310611c04575b838310611beb575b838310611bd2575b838310611bb9575b838310611ba0575b838310611b87575b838310611b6e575b838310611b55575b838310611b3c575b838310611b23575b838310611b0c575b505010611afe575b5090509392930383611e70565b604051928392818401908285525180915260408401929160005b828110611ae357505050500390f35b835161ffff1685528695509381019392810192600101611ad4565b60f01c815201859087611aad565b9461ffff85600194971c168152019301848b611aa5565b91948160019161ffff8760d01c16815201950191611a9d565b91948160019161ffff8760c01c16815201950191611a95565b91948160019161ffff8760b01c16815201950191611a8d565b91948160019161ffff8760a01c16815201950191611a85565b91948160019161ffff8760901c16815201950191611a7d565b91948160019161ffff8760801c16815201950191611a75565b91948160019161ffff8760701c16815201950191611a6d565b91948160019161ffff8760601c16815201950191611a65565b91948160019161ffff8760501c16815201950191611a5d565b91948160019161ffff8760401c16815201950191611a55565b91948160019161ffff8760301c16815201950191611a4d565b91948160019161ffff87831c16815201950191611a45565b91948160019161ffff8760101c16815201950191611a3d565b91948160019161ffff8716815201950191611a35565b9260109295506001919450610200908754808c61ffff918291828216865282828a1c16818701521c16604084015280828082818d8282606092828260301c16848d01526080908c82858560401c169101528c60a095858560501c16878301528560c09a8b921c16910152838360701c16908d01521c166101008a0152828260901c166101208a01521c16610140870152828260b01c166101608701521c16610180840152808260d01c166101a084015281891c166101c083015260f01c6101e082015201950191019287928694959295611a1c565b346101fc5760403660031901126101fc57611d6b611dde565b600435600052600a60205260406000209060018060a01b03166000526020526020604060002054604051908152f35b346101fc5760003660031901126101fc576002546040516001600160a01b039091168152602090f35b346101fc5760003660031901126101fc576020906003548152f35b602435906001600160a01b03821682036101fc57565b600435906001600160a01b03821682036101fc57565b6024359061ffff821682036101fc57565b6001546001600160a01b03163303611e2f57565b60405163118cdaa760e01b8152336004820152602490fd5b919082039182116107e757565b60e0810190811067ffffffffffffffff82111761179b57604052565b90601f8019910116810190811067ffffffffffffffff82111761179b57604052565b908160209103126101fc575180151581036101fc5790565b15611eb157565b606460405162461bcd60e51b81526020600482015260046024820152633c3332b960e11b6044820152fd5b919082018092116107e757565b600260005414611efa576002600055565b604051633ee5aeb560e01b8152600490fd5b15611f1357565b60405162461bcd60e51b815260206004820152600a6024820152691b9bdd0818db1bdcd95960b21b6044820152606490fd5b818102929181159184041417156107e757565b8115611f62570490565b634e487b7160e01b600052601260045260246000fd5b61ffff8091169081146107e7576001019056fea2646970667358221220214d81644fb7bc1705f0b6525b5371702f13afa0a6329c1ace3b8a25e4e8292964736f6c63430008150033",
  "linkReferences": {},
  "deployedLinkReferences": {}
}